:020000040000fa
:080000000002040000000000f2
:020000040000fa
:04000800c60400002a
:020000040000fa
:04000c00c604000026
:020000040000fa
:04001000c604000022
:020000040000fa
:04001400c60400001e
:020000040000fa
:04001800c60400001a
:020000040000fa
:04001c00c604000016
:020000040000fa
:04002000c604000012
:020000040000fa
:04002400c60400000e
:020000040000fa
:04002800c60400000a
:020000040000fa
:04002c00c604000006
:020000040000fa
:04003000c604000002
:020000040000fa
:04003400c6040000fe
:020000040000fa
:04003800c6040000fa
:020000040000fa
:04003c00c6040000f6
:020000040000fa
:04004000c6040000f2
:020000040000fa
:04004400c6040000ee
:020000040000fa
:04004800c6040000ea
:020000040000fa
:04004c00c6040000e6
:020000040000fa
:04005000c6040000e2
:020000040000fa
:04005400c6040000de
:020000040000fa
:04005800c6040000da
:020000040000fa
:04005c00c6040000d6
:020000040000fa
:04006000c6040000d2
:020000040000fa
:04006400c6040000ce
:020000040000fa
:04006800c6040000ca
:020000040000fa
:04006c00c6040000c6
:020000040000fa
:04007000c6040000c2
:020000040000fa
:0400740094030000f1
:020000040000fa
:04007800c6040000ba
:020000040000fa
:04007c00c6040000b6
:020000040000fa
:04008000c6040000b2
:020000040000fa
:04008400c6040000ae
:020000040000fa
:04008800c6040000aa
:020000040000fa
:04008c00c6040000a6
:020000040000fa
:04009000c6040000a2
:020000040000fa
:040094003004000034
:020000040000fa
:04009800c60400009a
:020000040000fa
:04009c00c604000096
:020000040000fa
:0400a000a8020000b2
:020000040000fa
:0400a4002c03000029
:020000040000fa
:0400a800c60400008a
:020000040000fa
:0400ac00c604000086
:020000040000fa
:0400b000c604000082
:020000040000fa
:0400b400c60400007e
:020000040000fa
:0400b800c60400007a
:020000040000fa
:0400bc00c604000076
:020000040000fa
:0400c000c604000072
:020000040000fa
:0400c400c60400006e
:020000040000fa
:0400c800c60400006a
:020000040000fa
:0400cc00c604000066
:020000040000fa
:0400d000c604000062
:020000040000fa
:0400d400c60400005e
:020000040000fa
:0400d800c60400005a
:020000040000fa
:0400dc00c604000056
:020000040000fa
:0400e000c604000052
:020000040000fa
:0400e4006e040000a6
:020000040000fa
:0400e800c60400004a
:020000040000fa
:0400ec00c604000046
:020000040000fa
:0400f000c604000042
:020000040000fa
:0400f400c60400003e
:020000040000fa
:0400f800c60400003a
:020000040000fa
:0400fc00c604000036
:020000040000fa
:04010000c604000031
:020000040000fa
:04010400c60400002d
:020000040000fa
:04010800c604000029
:020000040000fa
:04010c00c604000025
:020000040000fa
:04011000c604000021
:020000040000fa
:04011400c60400001d
:020000040000fa
:04011800c604000019
:020000040000fa
:04011c00c604000015
:020000040000fa
:04012000c604000011
:020000040000fa
:04012400c60400000d
:020000040000fa
:04012800c604000009
:020000040000fa
:04012c00c604000005
:020000040000fa
:04013000c604000001
:020000040000fa
:04013400c6040000fd
:020000040000fa
:04013800c6040000f9
:020000040000fa
:04013c00c6040000f5
:020000040000fa
:04014000c6040000f1
:020000040000fa
:04014400c6040000ed
:020000040000fa
:04020800c604000028
:020000040000fa
:04020c00c604000024
:020000040000fa
:04021000c604000020
:020000040000fa
:04021400c60400001c
:020000040000fa
:04021800c604000018
:020000040000fa
:04021c00c604000014
:020000040000fa
:04022000c604000010
:020000040000fa
:04022400c60400000c
:020000040000fa
:04022800c604000008
:020000040000fa
:04022c00c604000004
:020000040000fa
:04023000c604000000
:020000040000fa
:04023400c6040000fc
:020000040000fa
:04023800c6040000f8
:020000040000fa
:04023c00c6040000f4
:020000040000fa
:04024000c6040000f0
:020000040000fa
:04024400c6040000ec
:020000040000fa
:04024800c6040000e8
:020000040000fa
:04024c00c6040000e4
:020000040000fa
:04025000c6040000e0
:020000040000fa
:04025400c6040000dc
:020000040000fa
:04025800c6040000d8
:020000040000fa
:04025c00c6040000d4
:020000040000fa
:04026000c6040000d0
:020000040000fa
:04026400c6040000cc
:020000040000fa
:04026800c6040000c8
:020000040000fa
:04026c00c6040000c4
:020000040000fa
:04027000c6040000c0
:020000040000fa
:04027400c6040000bc
:020000040000fa
:04027800c6040000b8
:020000040000fa
:04027c00c6040000b4
:020000040000fa
:04028000c6040000b0
:020000040000fa
:04028400c6040000ac
:020000040000fa
:04028800c6040000a8
:020000040000fa
:04028c00c6040000a4
:020000040000fa
:04029000c6040000a0
:020000040000fa
:04029400c60400009c
:020000040000fa
:04029800c604000098
:020000040000fa
:04029c00c604000094
:020000040000fa
:0402a000c604000090
:020000040000fa
:0402a400c60400008c
:020000040000fa
:0402a800c604000088
:020000040000fa
:0402ac00c604000084
:020000040000fa
:0402b000c604000080
:020000040000fa
:0402b400c60400007c
:020000040000fa
:0402b800c604000078
:020000040000fa
:0402bc00c604000074
:020000040000fa
:0402c000c604000070
:020000040000fa
:0402c400c60400006c
:020000040000fa
:0402c800c604000068
:020000040000fa
:0402cc00c604000064
:020000040000fa
:0402d000c604000060
:020000040000fa
:0402d400c60400005c
:020000040000fa
:0402d800c604000058
:020000040000fa
:0402dc00c604000054
:020000040000fa
:0402e000c604000050
:020000040000fa
:0402e400c60400004c
:020000040000fa
:0402e800c604000048
:020000040000fa
:0402ec00c604000044
:020000040000fa
:0402f000c604000040
:020000040000fa
:0402f400c60400003c
:020000040000fa
:0402f800c604000038
:020000040000fa
:0402fc00c604000034
:020000040000fa
:04030000c60400002f
:020000040000fa
:04030400c60400002b
:020000040000fa
:04030800c604000027
:020000040000fa
:04030c00c604000023
:020000040000fa
:04031000c60400001f
:020000040000fa
:04031400c60400001b
:020000040000fa
:04031800c604000017
:020000040000fa
:04031c00c604000013
:020000040000fa
:04032000c60400000f
:020000040000fa
:04032400c60400000b
:020000040000fa
:04032800c604000007
:020000040000fa
:04032c00c604000003
:020000040000fa
:04033000c6040000ff
:020000040000fa
:04033400c6040000fb
:020000040000fa
:04033800c6040000f7
:020000040000fa
:04033c00c6040000f3
:020000040000fa
:04034000c6040000ef
:020000040000fa
:04034400c6040000eb
:020000040000fa
:100400000fdd21000eff27000e0188000000000014
:10041000000020000000e000020032000001200087
:10042000200288000c000700e02f210001002000be
:1004300011000700000020000000e0000200320070
:100440000000020000000000921402000000000002
:100450000040da000000fe004440a9002002200015
:100460000000e0000300320000002000a00188002e
:100470004440a80000000600910188008000780038
:100480000000eb0015003700e280400032a0b4000d
:100490009101ba00e280400032a0b4009102ba009b
:1004a000e280400032a0b4000002eb00472bde00e7
:1004b000f507b200602ce10004003a000059eb009f
:1004c0008301e900fdff3e00040037006128e100e0
:1004d000010032000082eb000b00070011c3ba00dc
:1004e0001101ba000604e00003003a000200e00037
:1004f000e5ff3a0000000600f607b200960188000a
:1005000082007800f5ff37003159ba008301e90015
:100510000c0032002159ba008301e90008003200c2
:100520000400e00003003a00e280400032a0b40082
:10053000f5ff370011d9ba008301e900faff3a004c
:100540008100e800e180400032a0b4000000060015
:10055000809fbe00821f78003400f8000000200059
:10056000a00188000000fa0087c0a900c402a8000a
:10057000b0118000e20f40000f003a0000ba2100e5
:1005800010407800e24f40000b0032000228ef00dc
:1005900010408000b11180000141780001ba2100b3
:1005a000827078000000e8001040880010c0b3009e
:1005b00006e8b7001700370000ba210010407800a5
:1005c000e24f400013003a0010408000b11180005b
:1005d0000141780001ba210082707800104080004b
:1005e000e10f500005003a00b01180000040780093
:1005f00000c0e90006e8b7000300370006c8bf00e6
:100600000040e90006e8b700104080000000e80064
:100610001040880006c8bf000004e00009003a004e
:1006200097c0a90010002000004088001040800002
:10063000004078000043b0008040780000cb2100eb
:10064000014878000080fa003400f9004f0178007a
:100650004f00be00004006003600f800809fbe003c
:10066000829fbe00849fbe00869fbe003400f800bb
:1006700000002000a00188000000fa0087e0a90027
:1006800006c8bf000004e0000c003a000428ef0098
:10069000a0ba21001040780006e8b7002040800092
:1006a00091ba2100e14078008100fb00a11188008f
:1006b0000000e8002040880007003700204080004c
:1006c00091ba2100e14078008100fb00a11188006f
:1006d0000000e8002040880006c8bf008000fb0042
:1006e00020408000808f500007003a0097e0a9006a
:1006f00097c0a8009100200000ba21005c06070006
:10070000402c20001040a2000080fa003400f900c4
:100710004f03be004f02be004f01be004f00be009f
:100720003600f900004006003600f800809fbe0049
:10073000829fbe00849fbe00869fbe003400f800ea
:1007400000002000a00188000000fa008660a900d7
:10075000a116800000002200008060000000e00080
:1007600027003a00c462a800a116800000042000ff
:10077000008060000000e0000e003a00402c2000e5
:100780001020a200e0ca2100104078000004e00020
:1007900002003a001228ef001fe1a800e0ca210081
:1007a000104078008040e800e0ca2100014878004d
:1007b00023003700a11680000008200000806000a0
:1007c0000000e0001e003a00f10880000000280050
:1007d000008060000000e000190032001fe1a90065
:1007e000904080009105070080407800d0ca210029
:1007f00001487800402c20001020a2001000370093
:10080000c462a900a0ca21007b040700d0ca21004d
:10081000104078000080fb005005070050e5800084
:1008200061e5800072e580009804070050e58000d3
:1008300061e5800072e58000a60407003802070029
:100840000080fa003400f9004f03be004f02be00e2
:100850004f01be004f00be003600f9000040060008
:10086000801f78003400f80000002000a0018800fc
:100870000000fa008760a900904080000000e800b6
:10088000904088000080fa003400f9004f007800a2
:10089000004006000000fa001e21ef00f008800072
:1008a0000040a0000050a000f00888008760a90068
:1008b0008005800000c0a00000d0a10000e0a000e2
:1008c000800588009760a80060892900d00888000a
:1008d0001fe1a8000080fa00000006003600f800c2
:1008e000809fbe00829fbe00849fbe00869fbe0088
:1008f0003400f80000002000a00188000000fa0089
:1009000089e0a900a04080000000e800a040880025
:10091000a0408000e40f500002003a001428ef00cd
:10092000ab0307000080fa003400f9004f03be005b
:100930004f02be004f01be004f00be003600f9005e
:10094000004006000000fa002c21ef006009800042
:100950000040a0000050a0006009880089e0a900c4
:10096000d005800000c0a10000d0a00000e0a000e1
:10097000d005880099e0a800608929004009880016
:100980002de1a8000080fa00000006000040da0017
:100990000000fe006011b800ef003700889fbe0025
:1009a0008a9fbe008c1f78001a01070021013300c6
:1009b00003866c006450e100240032006420e100f2
:1009c000270032006150e100220032006120e10086
:1009d000210032008b854200eb07b1000134b800e2
:1009e000003ab8000804420089844a00013ab8007d
:1009f0000030b8008880400009014a00040033003c
:100a00000000400081804800020149008b05e90098
:100a1000c909dd00830170000100320013002000cd
:100a2000c814de004814dd004709de001200b200e1
:100a3000c808de00088470000e01070001f0a10064
:100a40000cf0a70001f0a000030137006120e100d5
:100a5000050132000801be000200be00f7ff3700aa
:100a60006150e100fcff3a00ff00370003f0a200f4
:100a7000889fbe008a9fbe008c1f7800e50007009b
:100a8000ec0033006450e1004f0032006420e100cc
:100a90005200320003826c0007003b000905d000c1
:100aa0000306d000820f54000c065d0002003900de
:100ab0000200320089017800030678008582550023
:100ac00004003d000003fd008103fd008502ea00f3
:100ad0008b854200840f720002003b006000100012
:100ae000e08018006011b8000005eb007a28e100f2
:100af0000a00390006007800c75ddd00f707b20084
:100b0000878075002d003700828171000a0178000e
:100b1000610560008180d1000080d3008502e9007a
:100b2000f9ff3b00060440008784480002003b00b8
:100b300060041400e0841c000988a3000700320050
:100b40008a81710082817100610164008904d10091
:100b50000884d3008b05e800170037000978a3004c
:100b600013003a000b00e000130034008b05e9008d
:100b70000804440089844c000a4474000978a300e6
:100b80000d003a000b00e000070034008b05e9007f
:100b90000804440089844c0001003a000b00200046
:100ba0000978a300f7ff32000001eb0002003700d4
:100bb000828171000a017800ae0007000cf0a700e6
:100bc00001f0a000a40037006420e10002003a0018
:100bd000838f6c00a40033000801be000200be0039
:100be0009d003700889fbe008a9fbe008c1f780042
:100bf000880007008f00330003866c006450e1001a
:100c00002e0032006420e100330032006150e10028
:100c10002f0032006120e10031003200858555004f
:100c2000eb07b00009002000080420000500370091
:100c30000804440089844c000a0031000603430084
:100c400087834b000001530081815b00f8ff330074
:100c50000203be000800a0000804440089844c0080
:100c6000f6ff3900c639dd00830173000100320050
:100c7000130020008904d1000884d3000998a30040
:100c8000050032000800a7000300a0008904d1007d
:100c90000884d3008b05e8008904d1000884d300c0
:100ca0000001eb000281d2007200070001f0a100f8
:100cb0000cf0a70001f0a000670037006420e100fd
:100cc000690032000801be000200be00f7ff3700d5
:100cd0006120e100640032006000b800f3ff3700db
:100ce0000000200001f82700f0ff37000001be00df
:100cf000860007000470a70003f0a10003f8a3001a
:100d000013003a006509b1001000320009003500f7
:100d10006928e100020035000100280000000500fc
:100d200000004000818048008502e900fcff3a0095
:100d300000000600f88f4200050035008100d10058
:100d40000080d3008502e800fcff3a0000000600a6
:100d50008000eb0000000500889fbe008a9fbe0057
:100d600000827000040271000482710026003200cb
:100d70000004be000200be006011b8006b09200034
:100d8000950220000182cf000a0039000541b10020
:100d90000082cf00070039000541b1000982cf0071
:100da000040039000541b1000882cf00010039007c
:100db0000541b10005425200120032000a003b001a
:100dc00082817100610164008100d1000080d30044
:100dd0008984d3000884d3008b05e8000442e8002e
:100de000f7ff3a00070037000804440089844c00ec
:100df00000004800818048008b05e9000442e900ba
:100e0000f9ff3a001b0007004f05be004f04be006b
:100e1000000006000004be003c0007000003be0006
:100e20000405be000200be0038000700844f7500b4
:100e3000000006000200be006450e100050036001c
:100e40006420e100020036000968a30001003a00b6
:100e50000800be000160a0004f0678004f05be00ec
:100e60004f04be0000000600f0ff2f00f1ff270036
:100e7000f9ff370081002000618055000b003d0024
:100e80000b00200061fe2f000100e1001d00340076
:100e900082817100610164008904d1000884d3005b
:100ea0000000e800faff3a007100200061006400d1
:100eb0000300700002006000090032006104440079
:100ec000e0844c000988a500050032008b05e8008d
:100ed0006808e10002003a008904d1000884d300c8
:100ee000f20f20000258e10005003d00c75ddd0063
:100ef000f907b2008980750008007800000006003c
:100f00000bf827008b00780000000500c70ade0000
:100f1000f107b200f50fb20008003200e1cf420045
:100f2000020032000170a00024000500810f700053
:100f3000010032000408050044000500810f700024
:100f400002003a00140005008502e900000040009c
:100f500081c04800fcff3b000170a0002400050098
:020000040000fa
:100f60005450000020460000494e0000414c000053
:100f700020410000432000003230000031360000e4
:100f800000500000756c00007361000072200000ca
:100f9000533400002020000020200000202000000a
:040fa000200000002d
:020000040000fa
:100fa4000000fa00402c20001070a200402c200009
:100fb4001060a200402c20001050a200402c200001
:100fc4001040a200402c20001030a200402c200031
:100fd4001020a200402c20001010a200402c200061
:100fe4001000a2000080fa00000006000a00fa00c7
:100ff4002007980031079800420798000000eb0092
:10100400100798003e0090006100600000407800e6
:101014000004e00024003200ae009000010f7800cc
:10102400130037001e007800ce00900000804000be
:10103400104078000000fb004800dd009e00900096
:1010440000804000100798001e0fe8001e00780082
:10105400ce00900000804000104078000000fb00ab
:101064009e00900000804000100798001e0fe800ca
:101074003e0090000000e9009e0f5000e9ff3c0094
:101084001e007800ce0090000080400010407800e0
:101094000000fb004800dd009e009000008040003e
:1010a400100798001a003700ae009000010f780076
:1010b400130037001e007800ce009000008040002e
:1010c400104078000000fb004800dd009e00900006
:1010d40000804000100798001e0fe8001e007800f2
:1010e400ce00900000804000104078000000fb001b
:1010f4009e00900000804000100798001e0fe8003a
:101104003e0090009e007800808f5000e9ff35007b
:101114001e0090000080fa00000006000000fa00a3
:10112400e0ca21008040eb0001487800d0ca2100c9
:101134008040eb0001487800a0ca21008040eb0009
:1011440001487800b0ca21008040eb0001487800d3
:10115400c0ca21008040eb00014878000080fa00fa
:10116400000006000400fa000000eb00000f780005
:101174000000eb00100798000b0037001e007800f9
:101184006500b900000078006400400081812000ff
:1011940061407800e24f5000030036001e009000ca
:1011a4000000e800100798001e0078006500b900f0
:1011b40000007800640040008181200061407800d4
:1011c4000080fb000000ea004f00de0000407800d1
:1011d4001e0fe8000004e000e8ff3a001e00900043
:1011e4000080fa00000006000200fa001028ef0058
:1011f4000e28ef000000eb00000f780027003700f6
:101204001e007800828120006500b900000078008b
:1012140000004100640040008040eb000148780079
:101224001e007800928120006500b900000078005b
:10123400000041000080e8008040eb000148780095
:101244001e007800828120006500b900000078004b
:10125400000041008040eb00014878001e00780047
:10126400928120006500b900000078000000410070
:101274008040eb00014878001e0078008281200045
:101284006500b90000007800000041000080e8001b
:101294008040eb00014878001e0fe800803e2000eb
:1012a4009e007800808f5000d5ff34000080fa0043
:1012b400000006000800fa00404798003107980033
:1012c4000000eb00000f78000040eb00204798007e
:1012d4000d0037001e0078006500b900000078009a
:1012e40081812000e14078004e40900080cf500082
:1012f40004003a0010c0b300204798003e0090005c
:101304001e0878001e0fe8001e0078006500b90072
:101314000000780064004000818120006140780072
:101324000004e000040032002e4090000004a200fb
:101334000004e000e7ff3a002e4090000080fb002c
:101344000080fa00000006000a00fa002007980056
:1013540031079800420798000040eb00004f7800e6
:101364004e00900090007800110798005300370059
:101374003e0090006500b9000000780081812000e3
:10138400614078008080fb002e009000808f500028
:1013940045003a003e0090006500b9000000780066
:1013a40081812000614078008040780092ba210059
:1013b4001e00900000004100014878001e009000cb
:1013c4000000e800100798003e0090006500b90096
:1013d400000078009181200061407800804078000e
:1013e40092ba21001e0090000000410001487800dc
:1013f4001e0090000000e800100798003e009000d6
:101404006500b900000078000080e80081812000b8
:10141400614078008040780092ba21001e0090005c
:1014240000004100014878001e0090000000e80020
:10143400100798003e0090006500b9000000780095
:101444000080e800918120006140780080407800ad
:1014540092ba21001e00900000004100014878006b
:101464001e0090000000e800100798003e00900065
:101474006500b9000000780064004000818120000c
:10148400614078008040780092ba21001e009000ec
:1014940000004100014878001e0090000000e800b0
:1014a400100798000200370010c0b300004f780006
:1014b4003e0090000000e800300798001e407800cd
:1014c4000004a2000004e000a9ff3a004e009000ce
:1014d4009e009000010878000080fa0000000600d9
:1014e4000200fa0090ba2100e1cfb300014878006d
:1014f400a0ba210091c0b3000148780030ba21009d
:1015040090407800b0ba210001487800c0ba2100a8
:1015140031c0b3000148780040ba210090407800ff
:10152400d0ba21000148780050ba210090407800d8
:10153400e0ba2100014878007040800080407800c3
:10154400f0ba21000148780092ba2100710020000d
:101554000000eb00a5fe0700000f78009e00780055
:101564000010200000017800110009008200d8005a
:10157400004078000040e9008040780000bb210072
:10158400014878009e0078000010200000017800d7
:10159400110009008200d8008000fd00804078001e
:1015a40010bb2100014878000080fa00000006000a
:1015b4000200fa0090ba2100e1cfb300014878009c
:1015c400a0ba210091c0b3000148780030ba2100cc
:1015d40090407800b0ba210001487800c0ba2100d8
:1015e40031c0b3000148780040ba2100904078002f
:1015f400d0ba21000148780050ba21009040780008
:10160400e0ba210001487800d6fe07008040780047
:10161400f0ba21000148780092ba2100710020003c
:101624000000eb0071fe0700000f78009e007800b8
:101634000010200000017800110009008200d80089
:10164400004078000040e9008040780000bb2100a1
:10165400014878009e007800001020000001780006
:10166400110009008200d8008000fd00804078004d
:1016740010bb2100014878000080fa000000060039
:101684000800fa0090ba2100e1cfb30001487800c5
:1016940030ba210090407800b0ba210001487800a7
:1016a400c0ba210031c0b3000148780040ba21001b
:1016b40090407800d0ba21000148780050ba210047
:1016c40090407800e0ba21000148780060002000d2
:1016d4001007980060ba210010407800e400470029
:1016e400f4fe07000000e00007003200ae009000a6
:1016f40060ba2100104078000000fb000e81e80071
:1017040011ff0700060037001e00900091ba210067
:101714000041eb00827078000000e8001007980098
:101724001e0090000040780000c0e800804078006f
:10173400a0ba2100014878001e00900092ba21004e
:10174400800078000000eb0028fe0700000f7800fe
:101754001e009000300798001e0178000110200040
:1017640081017800110009000301d8008000fd0008
:101774000141780091ba21003e0090008270780007
:10178400be0090000100e800100798009e01900040
:10179400330798001e0178000110200081017800b1
:1017a400110009000301d8000141780091ba210019
:1017b4003e00900082707800be0090000100e800b6
:1017c400100798000080fa00000006000400fa00e8
:1017d40000db2100104078006a00b90000007800a6
:1017e4008040780010db21001040780000c04000e9
:1017f400704f500030db2100104078006a00b900bf
:10180400000078008040780040db21001040780020
:1018140000c04000704050001047980060db210079
:10182400104078006a00b900000078008040780019
:1018340070db21001040780000c040007040500070
:1018440020479800ae409000a0c3b30080cf500062
:1018540004003e002e4090000040e800204798001d
:10186400130037000040eb00204798009e40900092
:10187400a0c3b30080cf500004003e001e4090007f
:101884000040e80010479800090037000040eb00d2
:10189400104798001e407800f64f500002003e00aa
:1018a4001e4fe800020037000040eb00004f7800b4
:1018b4009e80fb00a00020000001780011000900b8
:1018c4008280d8000040780002c3b3008240400008
:1018d40000db2100014878009e80fb00a00020006e
:1018e40000017800110009008280d8008000fd000a
:1018f4000040780002c3b3008240400010db2100a6
:10190400014878001e4090008080fb00a000200069
:1019140000017800110009008280d800004078009e
:1019240002c3b3008240400030db2100014878004c
:101934001e4090008080fb00a00020000001780081
:10194400110009008280d8008000fd00004078006a
:1019540002c3b3008240400040db2100014878000c
:101964002e4090008080fb00a00020000001780041
:10197400110009008280d8000040780002c3b3003f
:101984008240400060db2100014878002e40900036
:101994008080fb00a00020000001780011000900f5
:1019a4008280d8008000fd000040780002c3b300ac
:1019b4008240400070db21000148780020c0b30061
:1019c400a9020700f1c0b30000db2100d302070025
:1019d4000080fa00000006000000fa00c402a8001b
:1019e400a000200016040700c402a9000080fa0029
:1019f400000006000200fa00000f780000db21005e
:101a0400104078006a00b900000078008040780037
:101a140010db21001040780000c04000f04050006e
:101a24001e0078000148780030db21001040780067
:101a34006a00b900000078008040780040db210093
:101a44001040780000c04000f04050001e007800b4
:101a54001140980060db2100104078006a00b90052
:101a6400000078008040780070db2100104078008e
:101a740000c04000f04050001e0078002140980053
:101a84000080fa00000006000600fa00000f78004b
:101a94001107980022079800804080006500b90073
:101aa400800078008081200000804000040009004c
:101ab4003e5878005000b1005e00b10080408000c4
:101ac4000000e800804088000080fa000000060062
:101ad4000600fa00000f780011079800220798000a
:101ae400704080000000e800704088007040800072
:101af4000040780002c3b30082404000e0db2100d4
:101b0400014878003e4090008080fb0040062000a1
:101b140000017800110009008280d800004078009c
:101b240002c3b3008240400000dc21000148780079
:101b34003e4090008080fb004006200000017800b9
:101b4400110009008280d8008000fd000040780068
:101b54008080fb00a0002000000178001100090033
:101b64008280d8000040780002c3b3008240400065
:101b740010dc2100014878003e4090008080fb008a
:101b84004006200000017800110009008280d8007e
:101b94008000fd00004078008080fb00a000200051
:101ba40000017800110009008280d8008000fd0047
:101bb4000040780002c3b3008240400020dc2100d2
:101bc4000148780030dc2100b1c4b300014878003a
:101bd40040dc210001c2b300014878004e4090006f
:101be40002c3b3008240400050dc21000148780069
:101bf40060dc210001c2b300014878001e40780077
:101c04008080fb00a0002000000178001100090082
:101c14008280d8000040780002c3b30082404000b4
:101c240070dc2100014878001e4078008080fb00b1
:101c3400a000200000017800110009008280d80073
:101c44008000fd000040780002c3b30082404000e1
:101c540080dc21000148780090dc2100a1c3b3009e
:101c6400014878001e4090008080fb00a000200006
:101c740000017800110009008280d800004078003b
:101c840002c3b30082404000a0dc21000148780078
:101c94001e4090008080fb00a0002000000178001e
:101ca400110009008280d8008000fd000040780007
:101cb40002c3b30082404000b0dc21000148780038
:101cc400c0dc2100a1c3b300014878002e4090007d
:101cd4008080fb00a00020000001780011000900b2
:101ce4008280d8000040780002c3b30082404000e4
:101cf400d0dc2100014878002e4090008080fb0059
:101d0400a000200000017800110009008280d800a2
:101d14008000fd000040780002c3b3008240400010
:101d2400e0dc21000148780020c0b300ce010700a8
:101d3400f1c0b30000db2100f801070000ccb300c0
:101d4400c9010700f1c0b30000dc2100f301070062
:101d54000080fa00000006000200fa00000f78007c
:101d6400b00320009e007800808f500001003600f0
:101d740019ff07000080fa00000006000000fa00c6
:101d840020ba21001040780030c0b2000080fb006f
:101d94000000e9004f00de000080fa0000000600a9
:101da4000200fa00000f78001e007800100078008e
:101db4000000e0000b003a001e007800010820003b
:101dc4000108780040ba21009040780000c8b300b0
:101dd40000c068000080fb000000e9004f00de0046
:101de4000f0037001e0078009000780000082000e3
:101df400808f500009003a001e0078008000eb003c
:101e04000108780040ba2100104078000080fb00ef
:101e14000000e9004f00de00010037000000eb0085
:101e24000080fa00000006001200fa00000f98007b
:101e340050f92b00616d2300008fbe00a0088000c4
:101e44008000eb00d2fa07001e01be00d2fa0700a0
:101e540020079800310798000e0890008000eb00de
:101e6400cbfa07000260290083712400cafa070034
:101e74001e01be00c8fa07004007980051079800e9
:101e84004e019000de0190002e009000be009000f4
:101e9400f6fa070060079800710798006e01900039
:101ea400fe01900000002000011224004cfb0700fa
:101eb4000200200003042400b7fa07008afb07008d
:101ec400004078000080fa00000006000000fa00dc
:101ed40050ba21009040780010c4b30080cf500065
:101ee4001900320050ba21009040780020c4b30099
:101ef40080cf50001400320050ba21009040780086
:101f040030c4b30080cf50000f00320050ba21001b
:101f14009040780050c4b30080cf50000a003200d3
:101f240050ba21009040780060c4b30080cf5000c4
:101f34000500320050ba21009040780070c4b3000c
:101f440080cf500002003a00100020001200370039
:101f540050ba21009040780040c4b30080cf5000b4
:101f64000c003a0060ba2100104078000004e00040
:101f74000600350060ba210010407800f74f500089
:101f840002003c0010002000010037000000eb00bc
:101f9400010037000000eb000080fa00000006009a
:101fa4000600fa0010ba2100104078000000fb007f
:101fb400000f78001e80e90001ba2100614078001a
:101fc4000000fb00c800dd001e00e90002ba210089
:101fd400624078000000fb00008040001007980079
:101fe4001e80e90002ba2100800078000000eb00a6
:101ff400fefb070020079800ae0090001e00900032
:102004000080680000f0a7000000ea000000e9007a
:102014004f00de000080fa00000006000200fa0013
:10202400000f780055ff07000000e0000c003200ac
:102034001e0078005aff07000000e000080032008c
:10204400a2ff07000000e00005003200d4ff0700f3
:102054000000e00002003200100020000100370000
:102064000000eb000080fa00000006000600fa0001
:1020740010079800210798000000eb00000f78007b
:10208400060037001e0078009e009000008040008b
:102094008040eb00014878001e0fe8002e009000fd
:1020a4009e007800808f5000f6ff35000080fa0013
:1020b400000006000200fa0090ba2100e1cfb3004c
:1020c40001487800a0ba210081c0b300014878001b
:1020d40030ba210090407800b0ba2100014878005d
:1020e400c0ba210031c0b30001487800d0ba210041
:1020f40001c6b30001487800e0ba210071c4b300fe
:102104000148780092ba2100610020000000eb0031
:10211400b6fb0700000f78009e0078000010200036
:1021240000017800110009008200d8008040780086
:10213400f0ba2100014878009e00780000102000c9
:1021440000017800110009008200d8008000fd0021
:102154008040780000bb2100014878000080fa002c
:10216400000006000200fa0090ba2100e1cfb3009b
:1021740001487800a0ba210081c0b300014878006a
:1021840030ba210090407800b0ba210001487800ac
:10219400c0ba210031c0b30001487800d0ba210090
:1021a40001c4b30001487800e0ba210061c4b3005f
:1021b4000148780092ba2100610020000000eb0081
:1021c4008afb0700000f78009e00780000102000b2
:1021d40000017800110009008200d80080407800d6
:1021e400f0ba2100014878009e0078000010200019
:1021f40000017800110009008200d8008000fd0071
:102204008040780000bb2100014878000080fa007b
:10221400000006000000fa0050ba210010407800c7
:102224000000fb0041042000810f50001e0032001a
:1022340041042000810f50000a003c0021042000ca
:10224400810f50001300320021042000810f500040
:1022540013003c0011042000810f50000b003200d9
:102264001a00370061042000810f5000130032006f
:1022740061042000810f50000d003500710420001e
:10228400810f50000f0032001000370094fc07004b
:102294000e003700b3ff0700d3fb07000b00370025
:1022a400c3fc070009003700f5fc070007003700ee
:1022b400acff0700c8fd070004003700a9ff0700b2
:1022c400020037007bff0700000000000080fa00d6
:1022d400000006000000fa00e116800000f02f0064
:1022e40000806000e0168800d6a2a900cbe2a90015
:1022f400d682a900c116800000f02f000080600083
:10230400c0168800d2a2a900c7e2a900d282a900ff
:10231400e116800000f02f0000806000e0168800c5
:10232400e11680008003200001007000e0168800a0
:10233400d682a80000000000000000000000000099
:10234400d682a900e0012000bd010700e11680004b
:1023540000f02f0000806000e0168800e116800085
:102364008003200001007000e0168800d682a800d7
:10237400000000000000000000000000d682a90058
:1023840030002000bc010700e116800000f02f009f
:1023940000806000e0168800e116800080032000c1
:1023a40001007000e0168800d682a800000000003a
:1023b4000000000000000000d682a90030002000c8
:1023c400ad01070080c3b30027000700c0c0b300fd
:1023d4002500070060c0b300230007000080fa0056
:1023e400000006000000fa0020c0b3001e00070031
:1023f4000bc8bf005900070009c8bf000043b00064
:102404002e0007000ac8bf000043b0002b000700dd
:102414000cc8bf005100070040c1b3001200070000
:1024240009c8bf000043b000240007000ac8bf0069
:102434000043b000210007000dc8bf00470007009b
:1024440040c1b3000800070009c8bf000043b00042
:102454001a0007000ac8bf000043b00017000700b5
:102464000080fa00000006000200fa00004f780025
:10247400e116800000f02f0000806000e016880064
:102484009e00fb00e016800001007000e01688004a
:10249400d6a2a900cbe2a900d682a80000000000c1
:1024a4000000000000000000d682a900e001200026
:1024b400630107000080fa00000006000200fa0031
:1024c400004f7800d6a2a900cbe2a800e116800054
:1024d40000f02f0000806000e01688009e00fb00e2
:1024e400e016800001007000e0168800d682a80083
:1024f400000000000000000000000000d682a900d7
:10250400cbe2a900300020005b010700300020006e
:10251400590107000080fa00000006000400fa00d8
:10252400000f780021479800070037001e0078004c
:10253400104078001e0fe800e0ff07002e409000d6
:102544000040e900204798002e4090000004e0007d
:10255400f6ff3a000080fa00000006000200fa00cc
:10256400004f78000868ef000968ef000a68ef0080
:102574001900370070ccb3009e40780080cf500023
:102584000400360081c3b3001ecf400020c0b30056
:1025940008e8b70030c6b3009e40780080cf5000f2
:1025a40005003600c0c9b3001e4f400008c8bf0074
:1025b4000040e80008e8b7001e407800e94f5000ea
:1025c400050036001e4178006a4f510009c8bf005b
:1025d4000040e80009e8b7001e407800e94f5000c9
:1025e400e4ff3e001e417800a1802000824878006c
:0825f4000080fa00000006005f
:020000040000fa
:1025fc00160800000200000000000000b01c0000e3
:10260c0000010000020000002020200020202000fb
:10261c00202000000000000000000000000000006e
:10262c00000000000000000000000000000000009e
:10263c00000000000000000000000000000000008e
:10264c00000000000000000000000000000000007e
:10265c00000000000000000000000000000000006e
:10266c00000000000000000000000000000000005e
:10267c00000000000000000000000000000000004e
:10268c00000000000000000000000000000000003e
:10269c00000000000000000000000000000000002e
:1026ac00000000000000000000000000000000001e
:1026bc00000000000000000000000000000000000e
:1026cc0000000000000000000000000000000000fe
:1026dc0000000000000000000000000000000000ee
:1026ec0000000000000000000000000000000000de
:1026fc0000000000000000000000000000000000ce
:10270c0000000000000000000000000000000000bd
:10271c0000000000000000000000000000000000ad
:10272c00000000000000000000000000000000009d
:10273c00000000000000000000000000000000008d
:10274c00000000000000000000000000000000007d
:10275c00000000000000000000000000000000006d
:10276c00a01b000010010000000000000008000089
:10277c00080000000000000008080000060000002f
:10278c0000000000b01d000020000000020000004e
:10279c0031383a0033363a00303020002020200007
:1027ac00202020002020200020202000202020009d
:1027bc0020202000202020002020000018080000ed
:1027cc0088130000000000000e0800000400000048
:1027dc0000000000120800000400000000000000cf
:0427ec0000000000e9
:020000040000fa
:1027f0000000fa0031e2a9003162a8003002a9000d
:10280000801180000010a1000020a100801188002c
:1028100030102000c011880000402400900588007e
:1028200087c0a90097c0a80031e2a8003342a800e1
:1028300033a2a90033e2a900901180000060a1003a
:102840000070a1009011880087e0a90097e0a8001f
:102850000000eb00890007000080fa00000006007d
:102860000000fa0061e0a8006200a8006260a80011
:102870009660a8008660a9000080fa0000000600ab
:102880000000fa004427ef0060022000303a880080
:102890003200200080072000a109200033742000ae
:1028a0008049780081497800824978001200200030
:1028b0006004200071052000237420008049780006
:1028c000814978008249780000000000113a8000b8
:1028d000000027008080600000002300808f5000ef
:1028e000faff3a0000000000113a800000022000c8
:1028f000008060000000e000fbff320000f02f00cd
:1029000000168800c422ef00b9ff0700e1f70700b6
:10291000000c2200901688006ffe07000080fa006d
:10292000000006000200fa00fdf907000000eb00bd
:10293000000f7800d2ff07002cfa070010c0b30088
:10294000cafe0700007b280001c1b300f4fe0700a7
:1029500000ccb300c5fe0700107c280001c1b30005
:10296000effe070000000000a1168000000022001a
:10297000008060000000e000fbff3a00f1f7070074
:10298000b7ff070010c0b300b8fe0700f1c0b300e6
:1029900000db2100e2fe070001003700000000001c
:1029a000004080000000e000fcff320010c0b300d7
:1029b000aefe070000ccb300acfe070000cb210048
:1029c00080c0eb00d6fe0700402c20001000a200c3
:1029d000402c20001070a2000e00780090fd07002f
:1029e0000000e000040032000bfe0700402c200035
:1029f0001060a20001003700affd07000028ef00c3
:102a000090ba2100b1c0b30001487800a0ba2100fb
:102a100041c0b30001487800b0ba210051c0b300f2
:102a200001487800c0ba2100a1c0b3000148780075
:102a300097e0a800402c20001050a20087e0a800da
:102a4000d7ff37000200fa00000f78001e00e800f0
:102a5000b04088001628ed001608e200050032009c
:102a6000800c0800010000000000000000000000d1
:102a7000f8ff37000080fa00000006000200fa00ac
:102a8000000f78001e00e800b04088001628ed0016
:102a90001608e20005003200dc0508000100000015
:102aa0000000000000000000f8ff37000080fa007e
:042ab000000006001c
:020000040000fa
:0200000401f009
:04000000ffff0000fe
:020000040000fa
:0200000401f009
:04000400ffff0000fa
:020000040000fa
:0200000401f009
:04000800ffff0000f6
:020000040000fa
:0200000401f009
:04000c00fbff0000f6
:020000040000fa
:0200000401f009
:04001000bdff000030
:020000040000fa
:0200000401f009
:04001400ffff0000ea
:020000040000fa
:0200000401f009
:04001800ffff0000e6
:020000040000fa
:0200000401f009
:04001c00dfff000002
:00000001FF
