:020000040000fa
:080000000002040000000000f2
:020000040000fa
:1000080004040000040400000404000004040000c8
:1000180004040000040400000404000004040000b8
:1000280004040000040400000404000004040000a8
:100038007c0500000404000004040000040400001f
:100048000404000004040000040400000404000088
:1000580004040000940200000404000004040000ea
:100068000404000004040000040400000404000068
:100078000404000004040000040400000404000058
:10008800040400000404000004040000f804000054
:100098000404000004040000040400000404000038
:1000a8000404000004040000040400000404000028
:1000b8000404000004040000040400000404000018
:1000c8000404000004040000040400000404000008
:1000d80004040000040400000404000038050000c3
:1000e80004040000040400000404000004040000e8
:1000f80004040000040400000404000004040000d8
:1001080004040000040400000404000004040000c7
:1001180004040000040400000404000004040000b7
:1001280004040000040400000404000004040000a7
:100138000404000004040000040400000404000097
:100148000404000004040000040400000404000087
:100158000404000004040000040400000404000077
:100168000404000004040000040400000404000067
:100178000404000004040000040400000404000057
:100188000404000004040000040400000404000047
:100198000404000004040000040400000404000037
:1001a8000404000004040000040400000404000027
:1001b8000404000004040000040400000404000017
:1001c8000404000004040000040400000404000007
:1001d80004040000040400000404000004040000f7
:1001e80004040000040400000404000004040000e7
:0801f8000404000004040000ef
:020000040000fa
:1002080004040000040400000404000004040000c6
:1002180004040000040400000404000004040000b6
:1002280004040000040400000404000004040000a6
:100238007c0500000404000004040000040400001d
:100248000404000004040000040400000404000086
:1002580004040000940200000404000004040000e8
:100268000404000004040000040400000404000066
:100278000404000004040000040400000404000056
:10028800040400000404000004040000f804000052
:100298000404000004040000040400000404000036
:1002a8000404000004040000040400000404000026
:1002b8000404000004040000040400000404000016
:1002c8000404000004040000040400000404000006
:1002d80004040000040400000404000038050000c1
:1002e80004040000040400000404000004040000e6
:1002f80004040000040400000404000004040000d6
:1003080004040000040400000404000004040000c5
:1003180004040000040400000404000004040000b5
:1003280004040000040400000404000004040000a5
:100338000404000004040000040400000404000095
:100348000404000004040000040400000404000085
:100358000404000004040000040400000404000075
:100368000404000004040000040400000404000065
:100378000404000004040000040400000404000055
:100388000404000004040000040400000404000045
:100398000404000004040000040400000404000035
:1003a8000404000004040000040400000404000025
:1003b8000404000004040000040400000404000015
:1003c8000404000004040000040400000404000005
:1003d80004040000040400000404000004040000f5
:1003e80004040000040400000404000004040000e5
:0803f8000404000004040000ed
:020000040000fa
:100400002f8120000ef727000e0188000000000059
:1004100000012000200288000c000700c0642000ba
:100420000100200011000700000020000000e00093
:10043000020032000000020000000000660402001a
:10044000000000000040da000000fe004440a90067
:10045000400320000000e000030032000000200004
:10046000a00188004440a800000006009101880017
:10047000800078000000eb0015003700e2804000ab
:1004800032a0b4009101ba00e280400032a0b40072
:100490009102ba00e280400032a0b4000002eb00fa
:1004a000472bde00f507b200602ce10004003a00a3
:1004b0000059eb008301e900fdff3e000400370016
:1004c0006128e100010032000082eb000400070017
:1004d0001101ba000200e000e8ff3a000000060047
:1004e0003159ba008301e9000c0032002159ba00e9
:1004f0008301e900080032000400e00003003a0034
:10050000e280400032a0b400f5ff370011d9ba00f4
:100510008301e900faff3a008100e800e180400031
:1005200032a0b40000000600801f7800849fbe0047
:100530003400f80000002000a00188000000fa004c
:1005400045408000047d200004826a0004f0a7007a
:100550000402ea000402e9004f22de0004427800af
:100560008502e80045408800e04f52000400320058
:10057000442c20001470a2000002eb0044408800cc
:10058000041880000440880014c0b30004407800c0
:1005900002e8b70085a0a9000080fa003400f90045
:1005a0004f02be004f007800004006000000fa0035
:1005b000041980000480a0000490a00004198800a1
:1005c000041980000450a1000460a0000470a10080
:1005d000041988002043a8002143a9002063a90032
:1005e0002223a9002343a800141980000480a1003d
:1005f0000490a1001419880025e3a900f4c3b300f6
:100600000440780024e3b7004519800004fe2f0061
:10061000048262004419880028e3a9002603a90087
:10062000341980000410a1000420a10034198800ae
:100630000002eb0074198800f4002000841988007f
:100640002183a900141980000420a0000430a00018
:100650000440a1000450a1001419880094198000de
:100660000400a0000410a0000420a1009419880038
:1006700085a0a90095a0a90021e3a8000080fa00a8
:10068000000006000200fa00000f78000042eb00b4
:100690000440780003e8b7000042eb000440780013
:1006a00004e8b7000042eb000440780005e8b7001a
:1006b0000042eb000440780006e8b700390037003c
:1006c000944d20009e027800848f5200080036006e
:1006d00034802000144278000442e800044078008e
:1006e00003e8b70064b22f001e0f42002d00370050
:1006f000c40720009e027800848f52001500360047
:100700004480200014427800e84f520006003e006a
:1007100044802000144278000442e800044078003d
:1007200004e8b70008003700348020001442780045
:100730000442e8000440780003e8b7000042eb0000
:100740000440780004e8b70034f82f001e0f420080
:10075000140037001e027800ec0f5200080036002b
:1007600054802000144278000442e80004407800dd
:1007700005e8b7001e0278006d0f5200090037002f
:100780001e027800ec0f520006003e00648020003c
:10079000144278000442e8000440780006e8b700fc
:1007a0001e0fe9001e027800e00f5200c4ff3a005d
:1007b00034802000144278000443b00004407800e4
:1007c00003e8b70044802000144278000443b000de
:1007d0000440780004e8b7005480200014427800f8
:1007e0000443b0000440780005e8b70064802000ae
:1007f000144278000443b0000440780006e8b700d3
:100800000080fa00000006000040da000000fe0050
:020000040000fa
:100810005450000033200000202000002020000061
:10082000204100004320000032300000313600003b
:1008300000500000756c0000736100007220000021
:100840005333000020200000202000002020000062
:1008500020000000303000003a300000303a000044
:100860003030000020200000202000002020000068
:08087000202000000000000040
:020000040000fa
:100878000000fa00442c20001470a200442c200030
:100888001460a200442c20001450a200442c200024
:100898001440a200442c20001430a200442c200054
:1008a8001420a200442c20001410a200442c200084
:1008b8001400a2000002eb00744088000080fa00d7
:1008c800000006000000fa00ca000700000000004f
:1008d800a51680000404200004826200e00f520084
:1008e800fbff3a0001003700000000007440800060
:1008f800e30f520027003400c4802000144278001f
:100908000442e800044078000ce8b700c5802000e5
:1009180095427800b4c3b30084cf52000800360073
:100928000042eb00044078000ce8b700b4802000d7
:10093800144278000442e800044078000be8b7004d
:10094800b580200095427800b4c3b30084cf52002c
:10095800080036000042eb00044078000be8b700be
:10096800a4802000144278000442e8000440780083
:100978000ae8b700a480200014427800f84f52001b
:1009880003003a000042eb00044078000ae8b70090
:10099800b7ff07002480200014427800e04f52007f
:1009a800d1ff3200044080000400780033ff0700c4
:1009b8000042eb000440780002e8b700cbff3700a4
:1009c8000000fa0074382100640888000002eb0077
:1009d800540888008500a9009500a90013e1a80023
:1009e8000080fa0000000600841f78003400f80038
:1009f80004002000a40188000000fa008760a90014
:100a0800744080000402e800744088000080fa0006
:100a18003400f9004f027800004006000000fa0098
:100a28000002eb00f4088800f40880000440a000ed
:100a38000450a000f40888008760a900840580009d
:100a480004c0a00004d0a10004e0a0008405880030
:100a58009760a80004712200d40888001fe1a8004c
:100a68000080fa00000006003400f800881f7800b3
:100a780008002000a80188004f0478000000fa0050
:100a880089e0a9002de1a9000080fa003400f900ee
:100a9800004006000000fa000002eb00640988002c
:100aa800640980000440a0000450a1006409880083
:100ab80089e0a900d405800004c0a00004d0a100ea
:100ac80004e0a000d405880099e0a8000002eb002b
:100ad800440988002de1a8000080fa000000060003
:100ae8000200fa00000f78000080fa0000000600fb
:100af8003600f800809fbe00829fbe00849fbe0023
:100b0800869fbe003400f80000002000a001880085
:100b18000000fa0084408000e00f520009003a000b
:100b280000fc2700eeff070000fd2700ecff070090
:100b380000fe2700eaff070000ff2700e8ff070084
:100b48000800370000f82700e5ff070000f9270034
:100b5800e3ff070000fa2700e1ff070000fb27007a
:100b6800dfff0700844080000400a2008440880062
:100b78008480a9000080fa003400f9004f03be0009
:100b88004f02be004f01be004f00be003600f90004
:100b9800004006000000fa00041c80000440a10088
:100ba8000450a000041c8800041c80000400a1005c
:100bb8000410a000041c880004302000441c880095
:100bc800f4012000541c8800d4002000141c880064
:100bd800047c2000241c880004782000341c880031
:100be8008480a9009480a80081e3a8000080fa000e
:100bf800000006000000fa000002eb00243a88001a
:100c080064022000343a8800a4802000144278004e
:100c1800b4802000144278000042eb0004407800c1
:100c28000ce8b70004f02f002416880004f02f0009
:100c380004168800e4f02f002416880059fe0700e7
:100c48005fff070075ff0700d2ff07000080fa006a
:100c5800000006000000fa000002eb00140a8800f9
:100c680042e1a800140a80000450a1000460a10019
:100c7800140a8800140a80000400a0000410a100cf
:100c88000420a100140a88000080fa000000060071
:020000040000fa
:100c98000e08000002000000020000000000000032
:100ca800000800000a000000000000001008000012
:100cb800020000000200000000000000c07f0000e9
:100cc8004000000000000000807f0000400000009d
:100cd800000000000a0800000400000000000000f6
:040ce8000000000008
:020000040000fa
:0200000401f009
:04000000ffff0000fe
:020000040000fa
:0200000401f009
:04000400ff000000f9
:020000040000fa
:0200000401f009
:04000800ffff0000f6
:020000040000fa
:0200000401f009
:04000c00fbff0000f6
:020000040000fa
:0200000401f009
:04001000bdff000030
:020000040000fa
:0200000401f009
:04001400ffff0000ea
:020000040000fa
:0200000401f009
:04001800ffff0000e6
:020000040000fa
:0200000401f009
:04001c00dfff000002
:00000001FF
